{
  "_format": "hh-sol-artifact-1",
  "contractName": "JobManager",
  "sourceName": "contracts/JobManager.sol",
  "abi": [
    {
      "inputs": [
        {
          "internalType": "address",
          "name": "priceFeedAddress",
          "type": "address"
        }
      ],
      "stateMutability": "nonpayable",
      "type": "constructor"
    },
    {
      "inputs": [],
      "name": "ReentrancyGuardReentrantCall",
      "type": "error"
    },
    {
      "anonymous": false,
      "inputs": [
        {
          "indexed": true,
          "internalType": "uint256",
          "name": "jobId",
          "type": "uint256"
        },
        {
          "indexed": true,
          "internalType": "address",
          "name": "provider",
          "type": "address"
        }
      ],
      "name": "JobAccepted",
      "type": "event"
    },
    {
      "anonymous": false,
      "inputs": [
        {
          "indexed": true,
          "internalType": "uint256",
          "name": "jobId",
          "type": "uint256"
        },
        {
          "indexed": true,
          "internalType": "address",
          "name": "requester",
          "type": "address"
        },
        {
          "indexed": true,
          "internalType": "address",
          "name": "provider",
          "type": "address"
        },
        {
          "indexed": false,
          "internalType": "uint256",
          "name": "rewardEth",
          "type": "uint256"
        }
      ],
      "name": "JobApproved",
      "type": "event"
    },
    {
      "anonymous": false,
      "inputs": [
        {
          "indexed": true,
          "internalType": "uint256",
          "name": "jobId",
          "type": "uint256"
        },
        {
          "indexed": true,
          "internalType": "address",
          "name": "requester",
          "type": "address"
        },
        {
          "indexed": false,
          "internalType": "uint256",
          "name": "rewardUsd",
          "type": "uint256"
        },
        {
          "indexed": false,
          "internalType": "uint256",
          "name": "rewardEth",
          "type": "uint256"
        },
        {
          "indexed": false,
          "internalType": "string",
          "name": "dataUrl",
          "type": "string"
        },
        {
          "indexed": false,
          "internalType": "string",
          "name": "scriptUrl",
          "type": "string"
        }
      ],
      "name": "JobPosted",
      "type": "event"
    },
    {
      "anonymous": false,
      "inputs": [
        {
          "indexed": true,
          "internalType": "uint256",
          "name": "jobId",
          "type": "uint256"
        },
        {
          "indexed": true,
          "internalType": "address",
          "name": "provider",
          "type": "address"
        },
        {
          "indexed": false,
          "internalType": "string",
          "name": "resultUrl",
          "type": "string"
        }
      ],
      "name": "JobResultSubmitted",
      "type": "event"
    },
    {
      "inputs": [
        {
          "internalType": "uint256",
          "name": "jobId",
          "type": "uint256"
        }
      ],
      "name": "acceptJob",
      "outputs": [],
      "stateMutability": "nonpayable",
      "type": "function"
    },
    {
      "inputs": [
        {
          "internalType": "uint256",
          "name": "jobId",
          "type": "uint256"
        }
      ],
      "name": "approveAndPay",
      "outputs": [],
      "stateMutability": "nonpayable",
      "type": "function"
    },
    {
      "inputs": [
        {
          "internalType": "uint256",
          "name": "usdAmount",
          "type": "uint256"
        }
      ],
      "name": "convertUsdToEth",
      "outputs": [
        {
          "internalType": "uint256",
          "name": "",
          "type": "uint256"
        }
      ],
      "stateMutability": "view",
      "type": "function"
    },
    {
      "inputs": [],
      "name": "getLatestPrice",
      "outputs": [
        {
          "internalType": "int256",
          "name": "",
          "type": "int256"
        }
      ],
      "stateMutability": "view",
      "type": "function"
    },
    {
      "inputs": [],
      "name": "i_priceFeed",
      "outputs": [
        {
          "internalType": "contract AggregatorV3Interface",
          "name": "",
          "type": "address"
        }
      ],
      "stateMutability": "view",
      "type": "function"
    },
    {
      "inputs": [
        {
          "internalType": "string",
          "name": "dataUrl",
          "type": "string"
        },
        {
          "internalType": "string",
          "name": "scriptUrl",
          "type": "string"
        },
        {
          "internalType": "uint256",
          "name": "rewardUsd",
          "type": "uint256"
        }
      ],
      "name": "postJob",
      "outputs": [],
      "stateMutability": "payable",
      "type": "function"
    },
    {
      "inputs": [],
      "name": "s_jobCounter",
      "outputs": [
        {
          "internalType": "uint256",
          "name": "",
          "type": "uint256"
        }
      ],
      "stateMutability": "view",
      "type": "function"
    },
    {
      "inputs": [
        {
          "internalType": "uint256",
          "name": "",
          "type": "uint256"
        }
      ],
      "name": "s_jobs",
      "outputs": [
        {
          "internalType": "address payable",
          "name": "requester",
          "type": "address"
        },
        {
          "internalType": "address payable",
          "name": "provider",
          "type": "address"
        },
        {
          "internalType": "string",
          "name": "dataUrl",
          "type": "string"
        },
        {
          "internalType": "string",
          "name": "scriptUrl",
          "type": "string"
        },
        {
          "internalType": "string",
          "name": "resultUrl",
          "type": "string"
        },
        {
          "internalType": "uint256",
          "name": "rewardUsd",
          "type": "uint256"
        },
        {
          "internalType": "uint256",
          "name": "rewardEth",
          "type": "uint256"
        },
        {
          "internalType": "enum JobManager.JobStatus",
          "name": "status",
          "type": "uint8"
        }
      ],
      "stateMutability": "view",
      "type": "function"
    },
    {
      "inputs": [
        {
          "internalType": "uint256",
          "name": "jobId",
          "type": "uint256"
        },
        {
          "internalType": "string",
          "name": "resultUrl",
          "type": "string"
        }
      ],
      "name": "submitResult",
      "outputs": [],
      "stateMutability": "nonpayable",
      "type": "function"
    }
  ],
  "bytecode": "0x60a06040523480156200001157600080fd5b5060405162001fc338038062001fc38339818101604052810190620000379190620000e4565b60016000819055508073ffffffffffffffffffffffffffffffffffffffff1660808173ffffffffffffffffffffffffffffffffffffffff16815250505062000116565b600080fd5b600073ffffffffffffffffffffffffffffffffffffffff82169050919050565b6000620000ac826200007f565b9050919050565b620000be816200009f565b8114620000ca57600080fd5b50565b600081519050620000de81620000b3565b92915050565b600060208284031215620000fd57620000fc6200007a565b5b60006200010d84828501620000cd565b91505092915050565b608051611e8a6200013960003960008181610dd40152610e700152611e8a6000f3fe6080604052600436106100865760003560e01c80638a5ec72b116100595780638a5ec72b146101245780638c0dd79a146101685780638e15f47314610191578063957b8956146101bc578063a3053e2a146101e757610086565b8063078970071461008b5780635c3b9c4a146100b457806363b2f3c9146100d0578063706280b0146100f9575b600080fd5b34801561009757600080fd5b506100b260048036038101906100ad9190610f66565b610224565b005b6100ce60048036038101906100c991906110d9565b61050f565b005b3480156100dc57600080fd5b506100f760048036038101906100f29190610f66565b6108a1565b005b34801561010557600080fd5b5061010e6109e8565b60405161011b9190611173565b60405180910390f35b34801561013057600080fd5b5061014b60048036038101906101469190610f66565b6109ee565b60405161015f9897969594939291906112c5565b60405180910390f35b34801561017457600080fd5b5061018f600480360381019061018a9190611358565b610c1b565b005b34801561019d57600080fd5b506101a6610dcf565b6040516101b391906113cd565b60405180910390f35b3480156101c857600080fd5b506101d1610e6e565b6040516101de9190611447565b60405180910390f35b3480156101f357600080fd5b5061020e60048036038101906102099190610f66565b610e92565b60405161021b9190611173565b60405180910390f35b61022c610ecc565b6000600160008381526020019081526020016000209050600260048111156102575761025661124e565b5b8160070160009054906101000a900460ff16600481111561027b5761027a61124e565b5b146102bb576040517f08c379a00000000000000000000000000000000000000000000000000000000081526004016102b2906114ae565b60405180910390fd5b8060000160009054906101000a900473ffffffffffffffffffffffffffffffffffffffff1673ffffffffffffffffffffffffffffffffffffffff163373ffffffffffffffffffffffffffffffffffffffff161461034d576040517f08c379a00000000000000000000000000000000000000000000000000000000081526004016103449061151a565b60405180910390fd5b60038160070160006101000a81548160ff021916908360048111156103755761037461124e565b5b021790555060008160060154905060008260010160009054906101000a900473ffffffffffffffffffffffffffffffffffffffff1673ffffffffffffffffffffffffffffffffffffffff16826040516103cd9061156b565b60006040518083038185875af1925050503d806000811461040a576040519150601f19603f3d011682016040523d82523d6000602084013e61040f565b606091505b5050905080610453576040517f08c379a000000000000000000000000000000000000000000000000000000000815260040161044a906115cc565b60405180910390fd5b8260010160009054906101000a900473ffffffffffffffffffffffffffffffffffffffff1673ffffffffffffffffffffffffffffffffffffffff168360000160009054906101000a900473ffffffffffffffffffffffffffffffffffffffff1673ffffffffffffffffffffffffffffffffffffffff16857f125035bcd6e47235bdf9cc348c11324950b6869c25fb32efdb925d926078f0b0856040516104f99190611173565b60405180910390a450505061050c610f12565b50565b610517610ecc565b6000811161055a576040517f08c379a000000000000000000000000000000000000000000000000000000000815260040161055190611638565b60405180910390fd5b600061056582610e92565b9050803410156105aa576040517f08c379a00000000000000000000000000000000000000000000000000000000081526004016105a1906116ca565b60405180910390fd5b600060025490506040518061010001604052803373ffffffffffffffffffffffffffffffffffffffff168152602001600073ffffffffffffffffffffffffffffffffffffffff168152602001868152602001858152602001604051806020016040528060008152508152602001848152602001348152602001600060048111156106375761063661124e565b5b8152506001600083815260200190815260200160002060008201518160000160006101000a81548173ffffffffffffffffffffffffffffffffffffffff021916908373ffffffffffffffffffffffffffffffffffffffff16021790555060208201518160010160006101000a81548173ffffffffffffffffffffffffffffffffffffffff021916908373ffffffffffffffffffffffffffffffffffffffff16021790555060408201518160020190816106f091906118ec565b50606082015181600301908161070691906118ec565b50608082015181600401908161071c91906118ec565b5060a0820151816005015560c0820151816006015560e08201518160070160006101000a81548160ff0219169083600481111561075c5761075b61124e565b5b021790555090505060026000815480929190610777906119ed565b91905055503373ffffffffffffffffffffffffffffffffffffffff16817f9fa5fd5b2fd970892d69004181310ecf6a5b90ab7918510cbb39c8b02dd330c0853489896040516107c99493929190611a35565b60405180910390a3813411156108925760003373ffffffffffffffffffffffffffffffffffffffff1683346107fe9190611a88565b60405161080a9061156b565b60006040518083038185875af1925050503d8060008114610847576040519150601f19603f3d011682016040523d82523d6000602084013e61084c565b606091505b5050905080610890576040517f08c379a000000000000000000000000000000000000000000000000000000000815260040161088790611b08565b60405180910390fd5b505b505061089c610f12565b505050565b6000600160008381526020019081526020016000209050600060048111156108cc576108cb61124e565b5b8160070160009054906101000a900460ff1660048111156108f0576108ef61124e565b5b14610930576040517f08c379a000000000000000000000000000000000000000000000000000000000815260040161092790611b74565b60405180910390fd5b338160010160006101000a81548173ffffffffffffffffffffffffffffffffffffffff021916908373ffffffffffffffffffffffffffffffffffffffff16021790555060018160070160006101000a81548160ff0219169083600481111561099b5761099a61124e565b5b02179055503373ffffffffffffffffffffffffffffffffffffffff16827f4426e4a90a9570c8f678a263b11785eaaade8b79d76d18c43d4d8e00062e4f8360405160405180910390a35050565b60025481565b60016020528060005260406000206000915090508060000160009054906101000a900473ffffffffffffffffffffffffffffffffffffffff16908060010160009054906101000a900473ffffffffffffffffffffffffffffffffffffffff1690806002018054610a5d90611719565b80601f0160208091040260200160405190810160405280929190818152602001828054610a8990611719565b8015610ad65780601f10610aab57610100808354040283529160200191610ad6565b820191906000526020600020905b815481529060010190602001808311610ab957829003601f168201915b505050505090806003018054610aeb90611719565b80601f0160208091040260200160405190810160405280929190818152602001828054610b1790611719565b8015610b645780601f10610b3957610100808354040283529160200191610b64565b820191906000526020600020905b815481529060010190602001808311610b4757829003601f168201915b505050505090806004018054610b7990611719565b80601f0160208091040260200160405190810160405280929190818152602001828054610ba590611719565b8015610bf25780601f10610bc757610100808354040283529160200191610bf2565b820191906000526020600020905b815481529060010190602001808311610bd557829003601f168201915b5050505050908060050154908060060154908060070160009054906101000a900460ff16905088565b600060016000848152602001908152602001600020905060016004811115610c4657610c4561124e565b5b8160070160009054906101000a900460ff166004811115610c6a57610c6961124e565b5b14610caa576040517f08c379a0000000000000000000000000000000000000000000000000000000008152600401610ca190611be0565b60405180910390fd5b8060010160009054906101000a900473ffffffffffffffffffffffffffffffffffffffff1673ffffffffffffffffffffffffffffffffffffffff163373ffffffffffffffffffffffffffffffffffffffff1614610d3c576040517f08c379a0000000000000000000000000000000000000000000000000000000008152600401610d3390611c72565b60405180910390fd5b81816004019081610d4d91906118ec565b5060028160070160006101000a81548160ff02191690836004811115610d7657610d7561124e565b5b02179055503373ffffffffffffffffffffffffffffffffffffffff16837f9305583ff3d114df3e34c22dbfbaded0901fc58b7d6b03b361b2290c99f7e43984604051610dc29190611c92565b60405180910390a3505050565b6000807f000000000000000000000000000000000000000000000000000000000000000073ffffffffffffffffffffffffffffffffffffffff1663feaf968c6040518163ffffffff1660e01b815260040160a060405180830381865afa158015610e3d573d6000803e3d6000fd5b505050506040513d601f19601f82011682018060405250810190610e619190611d37565b5050509150508091505090565b7f000000000000000000000000000000000000000000000000000000000000000081565b600080610e9d610dcf565b9050600081670de0b6b3a764000085610eb69190611db2565b610ec09190611e23565b90508092505050919050565b600260005403610f08576040517f3ee5aeb500000000000000000000000000000000000000000000000000000000815260040160405180910390fd5b6002600081905550565b6001600081905550565b6000604051905090565b600080fd5b600080fd5b6000819050919050565b610f4381610f30565b8114610f4e57600080fd5b50565b600081359050610f6081610f3a565b92915050565b600060208284031215610f7c57610f7b610f26565b5b6000610f8a84828501610f51565b91505092915050565b600080fd5b600080fd5b6000601f19601f8301169050919050565b7f4e487b7100000000000000000000000000000000000000000000000000000000600052604160045260246000fd5b610fe682610f9d565b810181811067ffffffffffffffff8211171561100557611004610fae565b5b80604052505050565b6000611018610f1c565b90506110248282610fdd565b919050565b600067ffffffffffffffff82111561104457611043610fae565b5b61104d82610f9d565b9050602081019050919050565b82818337600083830152505050565b600061107c61107784611029565b61100e565b90508281526020810184848401111561109857611097610f98565b5b6110a384828561105a565b509392505050565b600082601f8301126110c0576110bf610f93565b5b81356110d0848260208601611069565b91505092915050565b6000806000606084860312156110f2576110f1610f26565b5b600084013567ffffffffffffffff8111156111105761110f610f2b565b5b61111c868287016110ab565b935050602084013567ffffffffffffffff81111561113d5761113c610f2b565b5b611149868287016110ab565b925050604061115a86828701610f51565b9150509250925092565b61116d81610f30565b82525050565b60006020820190506111886000830184611164565b92915050565b600073ffffffffffffffffffffffffffffffffffffffff82169050919050565b60006111b98261118e565b9050919050565b6111c9816111ae565b82525050565b600081519050919050565b600082825260208201905092915050565b60005b838110156112095780820151818401526020810190506111ee565b60008484015250505050565b6000611220826111cf565b61122a81856111da565b935061123a8185602086016111eb565b61124381610f9d565b840191505092915050565b7f4e487b7100000000000000000000000000000000000000000000000000000000600052602160045260246000fd5b6005811061128e5761128d61124e565b5b50565b600081905061129f8261127d565b919050565b60006112af82611291565b9050919050565b6112bf816112a4565b82525050565b6000610100820190506112db600083018b6111c0565b6112e8602083018a6111c0565b81810360408301526112fa8189611215565b9050818103606083015261130e8188611215565b905081810360808301526113228187611215565b905061133160a0830186611164565b61133e60c0830185611164565b61134b60e08301846112b6565b9998505050505050505050565b6000806040838503121561136f5761136e610f26565b5b600061137d85828601610f51565b925050602083013567ffffffffffffffff81111561139e5761139d610f2b565b5b6113aa858286016110ab565b9150509250929050565b6000819050919050565b6113c7816113b4565b82525050565b60006020820190506113e260008301846113be565b92915050565b6000819050919050565b600061140d6114086114038461118e565b6113e8565b61118e565b9050919050565b600061141f826113f2565b9050919050565b600061143182611414565b9050919050565b61144181611426565b82525050565b600060208201905061145c6000830184611438565b92915050565b7f4a6f62206e6f742070656e64696e6720617070726f76616c0000000000000000600082015250565b60006114986018836111da565b91506114a382611462565b602082019050919050565b600060208201905081810360008301526114c78161148b565b9050919050565b7f4f6e6c79207265717565737465722063616e20617070726f7665000000000000600082015250565b6000611504601a836111da565b915061150f826114ce565b602082019050919050565b60006020820190508181036000830152611533816114f7565b9050919050565b600081905092915050565b50565b600061155560008361153a565b915061156082611545565b600082019050919050565b600061157682611548565b9150819050919050565b7f5061796d656e74206661696c6564000000000000000000000000000000000000600082015250565b60006115b6600e836111da565b91506115c182611580565b602082019050919050565b600060208201905081810360008301526115e5816115a9565b9050919050565b7f526577617264206d7573742062652067726561746572207468616e207a65726f600082015250565b60006116226020836111da565b915061162d826115ec565b602082019050919050565b6000602082019050818103600083015261165181611615565b9050919050565b7f496e73756666696369656e74204554482073656e7420666f722074686973205560008201527f53442076616c7565000000000000000000000000000000000000000000000000602082015250565b60006116b46028836111da565b91506116bf82611658565b604082019050919050565b600060208201905081810360008301526116e3816116a7565b9050919050565b7f4e487b7100000000000000000000000000000000000000000000000000000000600052602260045260246000fd5b6000600282049050600182168061173157607f821691505b602082108103611744576117436116ea565b5b50919050565b60008190508160005260206000209050919050565b60006020601f8301049050919050565b600082821b905092915050565b6000600883026117ac7fffffffffffffffffffffffffffffffffffffffffffffffffffffffffffffffff8261176f565b6117b6868361176f565b95508019841693508086168417925050509392505050565b60006117e96117e46117df84610f30565b6113e8565b610f30565b9050919050565b6000819050919050565b611803836117ce565b61181761180f826117f0565b84845461177c565b825550505050565b600090565b61182c61181f565b6118378184846117fa565b505050565b5b8181101561185b57611850600082611824565b60018101905061183d565b5050565b601f8211156118a0576118718161174a565b61187a8461175f565b81016020851015611889578190505b61189d6118958561175f565b83018261183c565b50505b505050565b600082821c905092915050565b60006118c3600019846008026118a5565b1980831691505092915050565b60006118dc83836118b2565b9150826002028217905092915050565b6118f5826111cf565b67ffffffffffffffff81111561190e5761190d610fae565b5b6119188254611719565b61192382828561185f565b600060209050601f8311600181146119565760008415611944578287015190505b61194e85826118d0565b8655506119b6565b601f1984166119648661174a565b60005b8281101561198c57848901518255600182019150602085019450602081019050611967565b868310156119a957848901516119a5601f8916826118b2565b8355505b6001600288020188555050505b505050505050565b7f4e487b7100000000000000000000000000000000000000000000000000000000600052601160045260246000fd5b60006119f882610f30565b91507fffffffffffffffffffffffffffffffffffffffffffffffffffffffffffffffff8203611a2a57611a296119be565b5b600182019050919050565b6000608082019050611a4a6000830187611164565b611a576020830186611164565b8181036040830152611a698185611215565b90508181036060830152611a7d8184611215565b905095945050505050565b6000611a9382610f30565b9150611a9e83610f30565b9250828203905081811115611ab657611ab56119be565b5b92915050565b7f4661696c656420746f2073656e64206261636b20657863657373204554480000600082015250565b6000611af2601e836111da565b9150611afd82611abc565b602082019050919050565b60006020820190508181036000830152611b2181611ae5565b9050919050565b7f4a6f62206973206e6f74206f70656e0000000000000000000000000000000000600082015250565b6000611b5e600f836111da565b9150611b6982611b28565b602082019050919050565b60006020820190508181036000830152611b8d81611b51565b9050919050565b7f4a6f62206e6f7420696e2070726f677265737300000000000000000000000000600082015250565b6000611bca6013836111da565b9150611bd582611b94565b602082019050919050565b60006020820190508181036000830152611bf981611bbd565b9050919050565b7f4f6e6c792061737369676e65642070726f76696465722063616e207375626d6960008201527f7400000000000000000000000000000000000000000000000000000000000000602082015250565b6000611c5c6021836111da565b9150611c6782611c00565b604082019050919050565b60006020820190508181036000830152611c8b81611c4f565b9050919050565b60006020820190508181036000830152611cac8184611215565b905092915050565b600069ffffffffffffffffffff82169050919050565b611cd381611cb4565b8114611cde57600080fd5b50565b600081519050611cf081611cca565b92915050565b611cff816113b4565b8114611d0a57600080fd5b50565b600081519050611d1c81611cf6565b92915050565b600081519050611d3181610f3a565b92915050565b600080600080600060a08688031215611d5357611d52610f26565b5b6000611d6188828901611ce1565b9550506020611d7288828901611d0d565b9450506040611d8388828901611d22565b9350506060611d9488828901611d22565b9250506080611da588828901611ce1565b9150509295509295909350565b6000611dbd82610f30565b9150611dc883610f30565b9250828202611dd681610f30565b91508282048414831517611ded57611dec6119be565b5b5092915050565b7f4e487b7100000000000000000000000000000000000000000000000000000000600052601260045260246000fd5b6000611e2e82610f30565b9150611e3983610f30565b925082611e4957611e48611df4565b5b82820490509291505056fea2646970667358221220020b400b8a86f0a978219ba7cd5a3b171008bf35e89cd18dea79235aa9a2cb2764736f6c63430008140033",
  "linkReferences": {},
  "deployedLinkReferences": {}
}